:040000000A16352A7D
:10000800FF00030E8301E9000A08E8008A01A50A37
:100018000319A60A8101A0308B0068088A00690EBE
:080028008300FF0E7F0E0900AA
:10003000063083120313FD00FD0B1C28000008008E
:06004000000000000800B2
:10004600FB14FB1F2D28FF30F300F200F100F00037
:08005600FA0DF20CFF30080066
:08005E00FA1FF2130030080044
:100066007B15FB1F3D280130F300F201F101F00181
:08007600FA0DF20CFF30080046
:0E007E00F201F101F001F801F3010030080079
:0A008C0018200616182006120800BE
:100096007C188128FC1852287C19A0284B28A0011E
:1000A6007208031D72287108F2007008F1007808C2
:1000B600F000F801A0157208031D72287108F200FD
:1000C6007008F100F001A01120167208031D7228B5
:1000D6007108F200F101A01572080319942820088E
:1000E600F302031D031C98280310F21B8128F80D48
:1000F600F00DF10DF20DF30B782898287B1B701C80
:100106009C28F81F9C28F00A0319F10A0319F20A21
:10011600031D9C28F20CF10CF00CF30A0319A0281D
:100126009C280130FC003F20A3280230FC0033202D
:10013600A3280430FC002F20A3280830FC0023202D
:0401460000000800AD
:10014A00A0017208031DBA287108F2007008F100B4
:10015A00F001A0157208031DBA287108F200F10116
:10016A00A011201672080319C8282008F302031DDB
:10017A00031CCC280310F21BD028F00DF10DF20D50
:10018A00F30BC028CC280130FC003F20D3280230D2
:0E019A00FC003320D3280430FC002F20080086
:1001A8007F30831603134C05F1007108CC00711FD2
:1001B800E128831206148610E42883120610861498
:0201C80008002D
:1001CA007F30831603134C05F0007008CC008312AD
:1001DA0006118611BF30F00570088316CC0070171F
:0E01EA007008CC0070088312880046200800C0
:1001F8008312031306120615861183164C08831200
:06020800880046200800FA
:10020E008312031306118611B83083164C04831221
:06021E00880046200800E4
:10022400FF30831603138800202020208312061534
:10023400061286150616182008088316CC008312A9
:100244000612861120202020831688014C08F00015
:020254000800A0
:100256000030831603134602031C3E2946087F3CE2
:10026600031C3E2900304702031C3E2947083F3C39
:10027600031C3E293F2991294608CC00D420831629
:100286004708CC00CC0CCC13CC0CCC13CC0CCC1328
:10029600072183164608CC00E52012217008CB0002
:1002A60012217008CB004708CC00CC0CCC13CC0C28
:1002B600CC13CC0CCC13072183164608CC00E520C2
:1002C600073083164705F0007008C9007008F10072
:1002D6000130F000710803197429F00D7010FF3E0B
:1002E6006E297008C9007009CA0082294A08CB0520
:1002F6008E294908CB048E294908CB068E29480841
:10030600003A031979294808013A03197C29480853
:0E031600023A03197F294B08CC00FC20080096
:100324008312031372087606A000F801F90173081A
:100334007702031CB5297708FD007308F7007D08D0
:10034400F3007608FD007208F6007D08F2007508D7
:10035400FD007108F5007D08F1007408FD007008C7
:10036400F4007D08F000770803192E2A7208FA00B9
:10037400F217F61777087302F7000319E829083013
:100384007702031CDE29F7007408F9007508F400ED
:100394007608F500F60108307702031CDE29F70021
:1003A4007408F9007508F400F50108307702031C9D
:1003B400DE297A08F2002E2A77080319E8290310A7
:1003C400F60CF50CF40CF90CF70BE129A01FF52938
:1003D400F909F409F509F609F90A0319F40A0319E4
:1003E400F50A0319F60A7908F80774080318740F54
:1003F400F00775080318750FF10776080318760FD0
:10040400F207A01B0E2A031C1E2AF20CF10CF00C9E
:10041400F80CF30F1E2A2A2A0318222AF809F009D5
:10042400F109F209F80A0319F00A0319F10A031988
:10043400F20A8030FA06262A0130FC004B20302ACA
:100444000230FC004B20302A0430FC00A520302A66
:100454000830FC002320302A0030FC000000080093
:100464007B14FB1F3D2AF201FA1FFF30F200F1005A
:0A047400F000FA0DF20CFF30080052
:10047E00710DF80DF90D7408F8027508031C750F4F
:10048E00F902F00DF10D0F30FC00710DF80DF90DA4
:10049E007408701C582AF8027508031C750FF902AF
:1004AE005D2AF80775080318750FF907F00DF10DA1
:1004BE00FC0B4C2A7018692A7408F8077508031883
:0804CE00750FF907000008009A
:0C04D600831203138030F6069221080008
:1004E200831203137008F8007108F0007208F1001B
:1004F2007308F200F301FB01FC019E30F300FA01E4
:10050200F21F8F2AF809F009F109F209F80A031912
:10051200F00A0319F10A0319F20AFA170230FC0071
:040522004B20080062
:100526000030831603133E02031C9E2A3E083F3CFE
:10053600031C9E2A9F2ACE2A00303C020318A42AB6
:10054600BC013C087F3C0318AA2A7F30BC0000305F
:100556003D020318AF2ABD013D087F3C0318B52AAA
:100566007F30BD003C083D020318BF2A3C08C0008E
:100576003D08BC004008BD003C083D02031CCE2AD5
:100586003C08C6003E08C7003F08C8002B2183165A
:080596000313BC0ABF2A080090
:10059E0083120313FB01FA01F9018030F800F10C0C
:1005AE00F00C031CE32A7408F90775080318750F7D
:1005BE00FA070318FB0A0310F01FEB2A7408FA0758
:1005CE0075080318750FFB07FB0CFA0CF90CF80CE9
:1005DE00031CD62A7B08F3007A08F2007908F10092
:0605EE007808F00008008F
:1005F400831203137408003A031D092B7508003A8B
:10060400031D092BFF30F0007F30F100622B8312B1
:100614000313FD01F901F801710870040319003492
:1006240071087506FA00FA1BFD09FB01F51F1F2B63
:10063400F409F509F40A0319F50AF11F262BF00948
:10064400F109F00A0319F10A71087504FA00FA1B9A
:100654003B2B3F227B184E2BFD1F0034F009F10980
:10066400F00A0319F10AF809F909F80A0319F90A51
:100674000034F51F4A2BF11B462B7108F900700852
:10068400F800F101F0012E2BF101F001F00A003421
:10069400F109F009FB0A2B2BF80A0319F90A74086B
:1006A4007802031D2E2B75087902031D2E2BF901E8
:1006B400F801F00A0319F10AF11F2E2B0000FF3490
:0206C40008002C
:1006C60083120313FA017308031D7A147708031DB6
:1006D600FA147A080319AF2B033A03197A2B7A18FE
:1006E600772BF61FAD2BAB2BF21FAB2BAD2B720866
:1006F6008039FA00F21376088039F6137A06031960
:10070600882B7A080319AB2BAD2B770873020319D4
:100716008F2B031CA32BA72B760872020319962B8B
:10072600031CA32BA72B7508710203199D2B031C11
:10073600A32BA72B740870020319AF2B0318A72B42
:10074600FA080319AD2BAB2BFA080319AB2BAD2B0B
:10075600031408000310080003140315080008001A
:1007660083120313FB01FC01F801730803192B2CF8
:100776007208FA00F2179E30F302F31F1B2CF309DE
:10078600F30A08307302031CF02BF300F80D70080F
:10079600F8007108F0007208F100F20108307302E7
:1007A600031CF02BF300F80D7008F8007108F00038
:1007B600F10108307302031CF02BF300F80D7008EA
:1007C600F800F00108307302031CF02BF300F80D5B
:1007D600F8017308031D0310FA2B73080319FA2B8B
:1007E6000310F20CF10CF00CF80CF30BF32B7B1B43
:1007F600781C082C031C082CF80A0319F00A0319A4
:10080600F10A0319F20AF21B282CFA1F2B2CF20903
:10081600F109F009F809F80A0319F00A0319F10AAF
:100826000319F20A2B2CF201F101F001F8012B2C2D
:100836007B14FB1F2E2CF201FA1F2E2CF200F10066
:10084600F000F800FA0DF20C2E2C0130FC00302CD2
:100856000030FC00302CFF30FC00FC080319342C5F
:1008660032227208F3007108F2007008F10078086D
:04087600F000080086
:10087A0083160313B801B901B801B90180303906EA
:10088A00F00080307002031D4C2C0530380203182A
:10089A005C2C3208C60038083407C7003608C8007E
:1008AA002B2183160313B80A0319B90A432C320AF7
:1008BA00C6003408C7003608C8002B210230831648
:1008CA0003133207C6003408C7003608C8002B21B4
:1008DA0083160313320AC60004303407C7003608E9
:1008EA00C8002B210230831603133207C6000430D6
:0C08FA003407C7003608C8002B21080096
:1009060083120313051C8A2C5530F000A52C851C78
:100916008F2C4C30F000A52C051D942C5230F00085
:10092600A52C851D992C4430F000A52C051E9E2C67
:100936004F30F000A52C851EA32C4330F000A52CCB
:060946003130F000080052
:10094C0083120313051085100511851105128512EC
:02095C00080091
:10095E00803083120313F000803083163706700246
:10096E00031DBB2C3608093C0318152D0A30F40064
:10097E000030F5003608F0003708F100FA2278084A
:10098E00F0007908F10070088316BC007108BD00F4
:10099E0003303202BE000030031C013E3302BF00A2
:1009AE003408C0003508C1003808C2003908C30039
:1009BE008A1500208A110A3083120313F4000030C6
:1009CE00F50083163608F0003708F100FA22700899
:1009DE008316B6007108B7000A30F4000030F50037
:1009EE00FA227808F0007908F10070088316BC002E
:1009FE007108BD003208013EBE0000300318013EF2
:100A0E003307BF003408C0003508C1003808C200E3
:100A1E003908C3008A1500208A11392D0A30831235
:100A2E000313F4000030F50083163608F000370883
:100A3E00F100FA227808F0007908F10070088316A8
:100A4E00BC007108BD003208BE003308BF00340878
:100A5E00C0003508C1003808C2003908C3008A1525
:060A6E0000208A110800BF
:100A740083160313B401B50100303306031D442D5E
:100A84000030320603197D2D3408F0003508F100DA
:100A94000A30F4000030F500CF2270088316B60047
:100AA4007108B7003608B4003708B5000A30F400FE
:100AB4000030F5003208F0003308F100FA2278081B
:100AC400F0007908F100700883163607B40037087F
:100AD4000318013E7107B5000A30F4000030F50038
:100AE4003208F0003308F100FA2270088316B200CD
:100AF4007108B3003E2D3408F0003508F1000800F9
:100B0400831603133208C6003408C7003608C80029
:100B14002B2183160313320AC6003408C700360893
:100B2400C8002B210230831603133207C600340891
:0A0B3400C7003608C8002B21080096
:100B3E008030831603133306F00080307002031DDD
:100B4E00AA2D003032020318B52D3208003CF000F9
:100B5E003308031C013EF101F102B92D3208F000F9
:060B6E003308F10008004D
:100B74008312031387118316071601308312A4000E
:100B84002408123C031CCA2D08308706A40AC22D6F
:020B9400080057
:100B96008316031307168312871520208316071260
:100BA6008312071220208711202087152020831604
:0A0BB60007162020831287110800A3
:100BC000831603130712831207128715202087113B
:080BD00020208316071608001F
:100BD800831603133508F000F101F201F301FF3029
:100BE800F0050030F1057008BA007108BB007F30CD
:100BF8007002F2000030031C013E7102F30072081B
:100C0800BA007308BB0080307306F00080307002B1
:100C1800031D102E003072020318342EF401F50162
:100C2800F601F7013208F0003308F1003408F20049
:100C38003508F3006323013003180030F000700812
:100C480003192F2E0030F0000030F1008030F20040
:100C58007F30F3008D2EF001F101F201F3018D2EAA
:100C680083163B08003C031D3B2E3A08183C03182A
:100C7800462E3208F0003308F1003408F200350837
:100C8800F3008D2E3208F0003308F1003408F2002A
:100C98003508F300B323712270088316B600710873
:100CA800B7007208B8007308B9007008F40071083A
:100CB800F5007208F6007308F7003208F0003308F0
:100CC800F1003408F2003508F300632301300318FB
:100CD8000030F00070080319842E0030F400003052
:100CE800F5000030F6007F30F70083163608F00074
:100CF8003708F1003808F2003908F3006B228D2E0E
:100D080083163608F0003708F1003808F200390871
:040D1800F3000800DC
:0E0D1C008312031322088A00210882000800B7
:100D2A00831603133308B70037083502031CA82EAD
:100D3A003208BC003408BD003708BE003608BF00C0
:080D4A009322B70A992E08005C
:100D520083120313FB0173080319E62E7208FA00CB
:100D6200F2178E30F302F31FE92EF309F30A08306B
:100D72007302031CCC2EF300F10D7208F100F20194
:100D820008307302031CCC2EF300F10DF10173083D
:100D9200031D0310D42E73080319D42E0310F20C72
:100DA200F10CF30BCF2E7B1B711CDE2E031CDE2EEF
:100DB200F10A0319F20AF21BF52EFA1FF82EF209B4
:100DC200F109F10A0319F20AF82EF201F101F82EE3
:100DD2007B14FB1FFB2EF201FA1FFB2EFF30F200E9
:100DE200F100FA0DF20CFB2E0130FC00FD2E00305A
:100DF200FC00FD2EFF30FC00FC080319012F3222FB
:0A0E02007108F0007208F10008000A
:100E0C008316031324088312A300BA25CB25E4010F
:100E1C00E501E601E7018316071283128711013001
:100E2C00A4002408083C031C2D2FA31F202F83167D
:100E3C000716242F83160712831207128312202001
:100E4C00871520208711A30D2310A40A172F8316B2
:100E5C00071683128715202087112020071E382F94
:100E6C002020342F0130A4002408103C031C502FE8
:100E7C00E40DE50DE60DE70D64108715071E472FF1
:100E8C00641487112408083A031D4D2FE0258312A2
:100E9C00A40A3A2F6408E0006508E1006608E20045
:100EAC006708E3008030F000803067067002031D95
:100EBC00692F6608003C031D692F65080F3C031D54
:100ECC00692F6408A03C0318882FA030F0000F3065
:100EDC00F100F201F3016008DC006108DD0062083A
:100EEC00DE006308DF007008DC027108031C710F60
:100EFC00DD027208031C720FDE027308031C730FF1
:100F0C00DF02AC2FA030F4000F30F500F601F70132
:100F1C006008F0006108F1006208F2006308F30059
:100F2C007408DC007508DD007608DE007708DF0049
:100F3C007008DC027108031C710FDD027208031CBF
:100F4C00720FDE027308031C730FDF025C08F000E3
:100F5C005D08F1005E08F2005F08F3007122700872
:100F6C008316B2007108B3007208B4007308B500A0
:100F7C00EC25A9266430F4000030F500FA2200308C
:0A0F8C00F11BFF30F200F300080033
:100F9600313083160313A400A62483247008831615
:100FA600A4007008313A031DD92FD02F0230FB0060
:100FB6000430FC00BA30FD00FD0BDF2FFC0BDF2FE9
:0C0FC600FB0BDF2F00002408F0000800E7
:100FD2008E268A110A128000840AA10A0319A20A23
:080FE200F003031DE92F0800D4
:1010000083160313C401C50100303D06031D0A28E1
:1010100000303C06031D6328C401C501803045062D
:10102000F00080307002031D1728033044020318BB
:10103000362844083E07C6004008C7004208C800DA
:101040008A112B218A158316031344083E07C60014
:1010500004304007C7004208C8008A112B218A15B6
:1010600083160313C40A0319C50A0E280130C400ED
:101070000030C50080304506F00080307002031D4E
:10108000432804304402031862283E08C60044087E
:101090004007C7004208C8008A112B218A15023078
:1010A000831603133E07C60044084007C7004208E2
:1010B000C8008A112B218A1583160313C40A031949
:1010C000C50A3A288A2B00303D06031D69280130E5
:1010D0003C06031DA0283E08C600400AC70042087F
:1010E000C8008A112B218A15831603133E0AC600F5
:1010F0004008C7004208C8008A112B218A158316B0
:101100000313C401C50180304506F0008030700231
:10111000031D8C280530440203189F2802303E0727
:10112000C60044084007C7004208C8008A112B21A6
:101130008A1583160313C40A0319C50A83288A2B48
:1011400000303D06031DA62802303C06031D05297C
:10115000C401C50180304506F00080307002031DD7
:10116000B328033044020318C52844083E07C600CC
:101170004008C7004208C8008A112B218A1583162F
:101180000313C40A0319C50AAA28C401C501803083
:101190004506F00080307002031DD0280330440261
:1011A0000318E62802303E07C6004408C602400A7B
:1011B000C7004408C7074208C8008A112B218A15B6
:1011C00083160313C40A0319C50AC728C401C5013D
:1011D00080304506F00080307002031DF128033096
:1011E00044020318042944083E07C600043040079F
:1011F000C7004208C8008A112B218A1583160313E1
:10120000C40A0319C50AE8288A2B00303D06031DCD
:101210000B2903303C06031D6329C401C50180303E
:101220004506F00080307002031D18290530440285
:1012300003182B2902303E07C60044084007C700A8
:101240004208C8008A112B218A1583160313C40A89
:101250000319C50A0F29C401C50180304506F000F5
:1012600080307002031D36290230440203186229BF
:1012700044083E07C6004008C7004208C8008A115B
:101280002B218A158316031344083E07C60002303B
:101290004007C7004208C8008A112B218A1583160F
:1012A000031344083E07C60004304007C700420845
:1012B000C8008A112B218A1583160313C40A031947
:1012C000C50A2D298A2B00303D06031D69290430EB
:1012D0003C06031DBC29C401C50180304506F00051
:1012E00080307002031D7629023044020318A329BE
:1012F0003E08C60044084007C7004208C8008A11DB
:101300002B218A150230831603133E07C600400ABC
:10131000C7004408C7074208C8008A112B218A1554
:101320008316031344083E07C60002304007C70077
:101330004208C8008A112B218A1583160313C40A98
:101340000319C50A6D2902303E07C6000330400765
:10135000C7004208C8008A112B218A150230831663
:1013600003133E07C60004304007C7004208C80008
:101370008A112B218A158A2B0030831603133D0610
:10138000031DC42905303C06031D142AC401C501F0
:1013900080304506F00080307002031DD1290330F3
:1013A00044020318FD2944083E07C6004008C70050
:1013B0004208C8008A112B218A158316031344089A
:1013C0003E07C60004304007C7004208C8008A1123
:1013D0002B218A158316031344083E07C6000230EA
:1013E0004007C7004208C8008A112B218A158316BE
:1013F0000313C40A0319C50AC8293E08C600400AD7
:10140000C7004208C8008A112B218A1502308316B2
:1014100003133E07C60003304007C7004208C80058
:101420008A112B218A158A2B0030831603133D065F
:10143000031D1C2A06303C06031D722AC401C50187
:1014400080304506F00080307002031D292A0530E7
:10145000440203183B2A3E08C60044084007C70060
:101460004208C8008A112B218A1583160313C40A67
:101470000319C50A202AC401C50180304506F000C1
:1014800080307002031D462A0330440203185B2A91
:1014900002303E07C60002304007C7004408C707B5
:1014A0004208C8008A112B218A1583160313C40A27
:1014B0000319C50A3D2A3E0AC60002304007C7008C
:1014C0004208C8008A112B218A15831603133E0A8D
:1014D000C60004304007C7004208C8008A112B210B
:1014E0008A158A2B0030831603133D06031D7A2AC2
:1014F00007303C06031DB12A3E08C6004008C7005D
:101500004208C8008A112B218A15831603133E0A4C
:10151000C6004008C7004208C8008A112B218A155E
:1015200083160313C401C50180304506F0008030E6
:101530007002031D9D2A053044020318B02A0230B0
:101540003E07C60044084007C7004208C8008A1189
:101550002B218A1583160313C40A0319C50A942A7A
:101560008A2B00303D06031DB72A08303C06031DB8
:101570001F2BC401C50180304506F0008030700289
:10158000031DC42A033044020318F02A44083E070E
:10159000C6004008C7004208C8008A112B218A15DE
:1015A0008316031344083E07C60002304007C700F5
:1015B0004208C8008A112B218A1583160313440898
:1015C0003E07C60004304007C7004208C8008A1121
:1015D0002B218A1583160313C40A0319C50ABB2AD3
:1015E0003E08C600400AC7004208C8008A112B21E5
:1015F0008A15831603133E08C60003304007C70050
:101600004208C8008A112B218A1502308316031361
:101610003E07C600400AC7004208C8008A112B21B5
:101620008A150230831603133E07C60003304007B5
:10163000C7004208C8008A112B218A158A2B003066
:10164000831603133D06031D272B09303C06031D9B
:101650008A2BC401C50180304506F000803070023D
:10166000031D342B033044020318532B44083E0758
:10167000C6004008C7004208C8008A112B218A15FD
:101680008316031344083E07C60002304007C70014
:101690004208C8008A112B218A1583160313C40A35
:1016A0000319C50A2B2B3E08C600400AC700420892
:1016B000C8008A112B218A150230831603133E07B6
:1016C000C600400AC7004208C8008A112B218A15AB
:1016D00083160313C401C50180304506F000803035
:1016E0007002031D752B0230440203188A2B02304E
:1016F0003E07C60003304007C7004408C70742083A
:10170000C8008A112B218A1583160313C40A0319F2
:06171000C50A6C2B080065
:10171600831603132608B2002708B3008A119F25F3
:101726008A150A30F4000030F5008A11CF228A1596
:101736007008013E8316B20000300318013E71079F
:10174600B3008A113A258A157008A8007108A90005
:101756002608B2002708B3008A119F258A15803013
:10176600F200803071067202031DBB2B7008093C23
:10177600031CCF2B2608B2002708B3008A119F2529
:101786008A157008B2007108B3008A113A258A15C5
:101796007008A8007108A90000302706031DD52B84
:1017A60000302606031D3A2C02302407F2002508D5
:1017B6000318013EF3000B307207F000730803189C
:1017C600013EF10070087207B20073080318013E6B
:1017D6007107B300B30CB20CB313331BB3171F302E
:1017E600B4000030B5002808B6002908B70002305A
:1017F600B8000030B9008A11AF248A15023083166A
:1018060003132407F20025080318013EF3000B30EA
:101816007207F00073080318013EF10070087207A2
:10182600B20073080318013E7107B300B30CB20C83
:10183600B313331BB317B20A0319B30A2630B40025
:101846000030B5000230B6000030B7008A113D24E2
:101856008A150230831603132407F000250803189F
:10186600013EF1000B30F0070318F10A612E26083D
:10187600B2002708B3008A119F258A1580307106A9
:10188600F20080307202031D4A2C0F3070020318DA
:10189600682D8030F000803027067002031D552C1D
:1018A6002608003C0318DA2C02302407F20025082B
:1018B6000318013EF3000B307207F000730803189B
:1018C600013EF10070087207B20073080318013E6A
:1018D6007107B300B30CB20CB313331BB31726084E
:1018E600013EF00000300318013E2707F1000B30DF
:1018F600F0070318F10A70082C3CB4007108031CA9
:10190600013EB501B5022808B6002908B700023025
:10191600B8000030B9008A11AF248A150230831648
:1019260003132407F20025080318013EF3000B30C9
:101936007207F00073080318013EF1007008720781
:10194600B20073080318013E7107B300B30CB20C62
:10195600B313331BB317B20A0319B30A2608013EA1
:10196600F00000300318013E2707F1000530F007AC
:101976000318F10A70082C3CB4007108031C013EE0
:10198600B501B5020230B6000030B7008A113D2419
:101996008A150230831603132407F000250803185E
:1019A600013EF1000B30F0070318F10A612E0230F8
:1019B6002407F20025080318013EF3000B307207D6
:1019C600F00073080318013EF10070087207B200B8
:1019D60073080318013E7107B300B30CB20CB313BE
:1019E600331BB317B20A0319B30A3330B4000030FD
:1019F600B5000230B6000030B7008A1182258A157C
:101A06000230831603132407F20025080318013E4B
:101A1600F3000B307207F00073080318013EF10063
:101A260070087207B20073080318013E7107B3000D
:101A3600B30CB20CB313331BB3173530B4000030FC
:101A4600B5002808B6002908B7000230B8000030F3
:101A5600B9008A11AF248A150230831603132407AE
:101A6600F20025080318013EF3000B307207F00060
:101A760073080318013EF10070087207B20073087C
:101A86000318013E7107B300B30CB20CB313331B3A
:101A9600B317B20A0319B30A3B30B4000030B500DD
:101AA6000230B6000030B7008A113D248A15023094
:101AB600831603132407F00025080318013EF100DE
:101AC6000B30F0070318F10A612E8030F0008030E9
:101AD60027067002031D712D2608003C0318FF2DF2
:101AE60002302407F20025080318013EF3000B30EC
:101AF6007207F00073080318013EF10070087207C0
:101B0600B20073080318013E7107B300B30CB20CA0
:101B1600B313331BB31726082C3CF0002708031C0D
:101B2600013EF101F10270082C3EB40000300318AA
:101B3600013E7107B500B50CB40CB513351BB517CE
:101B46000530B402031CB5032808B6002908B700FF
:101B56000230B8000030B9008A11AF248A1502306D
:101B6600831603132407F20025080318013EF30029
:101B76000B307207F00073080318013EF10070087D
:101B86007207B20073080318013E7107B300B30C65
:101B9600B20CB313331BB317B20A0319B30A2608E0
:101BA6002C3CF0002708031C013EF101F1027008ED
:101BB6002C3EB40000300318013E7107B500B50C89
:101BC600B40CB513351BB517B40A0319B50A0230A0
:101BD600B6000030B7008A113D248A1502308316FC
:101BE60003132407F00025080318013EF1000B300B
:101BF600F0070318F10A612E02302407F2002508C7
:101C06000318013EF3000B307207F0007308031847
:101C1600013EF10070087207B20073080318013E16
:101C26007107B300B30CB20CB313331BB3173530C3
:101C3600B4000030B5002808B6002908B700023005
:101C4600B8000030B9008A11AF248A150230831615
:101C560003132407F20025080318013EF3000B3096
:101C66007207F00073080318013EF100700872074E
:101C7600B20073080318013E7107B300B30CB20C2F
:101C8600B313331BB317B20A0319B30A3B30B400BC
:101C96000030B5000230B6000030B7008A113D248E
:101CA6008A150230831603132407F000250803184B
:0E1CB600013EF1000B30F0070318F10A0800A0
:101CC40083160313AA01AB01AC01AD010B30AE00C6
:101CD4000030AF00B001B1012408AA002508AB0010
:101CE40080302706F00080302B067002031D7C2E06
:101CF4002A082602031CE42E80302B06F0008030D4
:101D04007002031D872E0A302A02031CA52E2A08FE
:101D1400F0002B08F1000A30F4000030F5008A11BD
:101D2400CF228A157008013E8316B20000300318D2
:101D3400013E7107B3008A113A258A157008B00074
:101D44007108B100B02E2A08B2002B08B3008A1122
:101D54003A258A157008B0007108B1002E082C07C6
:101D6400B2002D080318013E2F07B300B30CB20CC8
:101D7400B313331BB3172F30B4000030B500300851
:101D8400B6003108B7000230B8000030B9008A113B
:101D9400AF248A150230831603132E07F0002F0890
:101DA4000318013EF1007008AC007108AD000B305F
:101DB4007007AE0071080318013EAF00AA0A0319A8
:061DC400AB0A722E0800BC
:101DCA0083120313061086148316A6012608073CFD
:101DDA00031C042F2608CC008A1107218A158316B2
:101DEA00A50125083F3C031C022F2408CC008A11B8
:101DFA00FC208A158316A50AF62EA60AEB2E831254
:101E0A00861006148316A6012608073C031C222FF7
:101E1A002608CC008A1107218A158316A5012508F0
:101E2A003F3C031C202F2408CC008A11FC208A1571
:0C1E3A008316A50A142FA60A092F080021
:101E460083120313AB01831686120612061186113E
:101E560006108610831286128316880183120611D5
:101E660086110610861486163F3088008A11462091
:101E76008A15C03088008A1146208A1506148610F5
:101E86003F3088008A1146208A15C03088008A11A2
:061E960046208A15080039
:10200000003083160313A51BFF30F000FF3A031DB9
:1020100013287008E13A031D132825087B3A031D95
:10202000132880302406031D1628342A8030F0003F
:10203000803025067002031D1F282408013C031868
:102040000829B728B20124082C3CB3000B30B40097
:102050002C30B5000130B6000A1295260A16072961
:102060000D30B20024082C3CB3001830B4002C30E2
:10207000B5000130B6000A1295260A1607291A3053
:10208000B20024082C3CB3002530B4002C30B5003D
:102090000130B6000A1295260A1607292730B20029
:1020A00024082C3CB3003230B4002C30B500013091
:1020B000B6000A1295260A1607293430B200240801
:1020C0002C3CB3003F30B4002C30B5000130B600DA
:1020D0000A1295260A1607294130B20024082C3C22
:1020E000B3004C30B4002C30B5000130B6000A12F9
:1020F00095260A1607294E30B20024082C3CB3005E
:102100005930B4002C30B5000130B6000A129526C3
:102110000A1607295B30B20024082C3CB300663055
:10212000B4002C30B5000130B6000A1295260A160C
:1021300007296830B20024082C3CB3007330B40087
:102140002C30B5000130B6000A1295260A16072970
:102150007530B20024082C3CB3008030B4002C3021
:10216000B5000130B6000A1295260A16072900307C
:102170002706031DBD28013026060319222800303A
:102180002706031DC5280230260603193028003013
:102190002706031DCD280330260603193F280030EB
:1021A0002706031DD5280430260603194E280030C3
:1021B0002706031DDD280530260603195D2800309B
:1021C0002706031DE5280630260603196C28003073
:1021D0002706031DED280730260603197B2800304B
:1021E0002706031DF5280830260603198A28003023
:1021F0002706031DFD2809302606031999280030FB
:102200002706031D05290A3026060319A828342AA3
:10221000E4292408B2002508B3000A129F250A16F3
:1022200070082C3EB500B2012C30B3000B30B40066
:102230000130B6000A1295260A16342A2408B20084
:102240002508B3000A129F250A1670082C3EB50017
:102250000D30B2002C30B3001830B4000130B6009D
:102260000A1295260A16342A2408B2002508B3005B
:102270000A129F250A1670082C3EB5001A30B200CB
:102280002C30B3002530B4000130B6000A12952678
:102290000A16342A2408B2002508B3000A129F2522
:1022A0000A1670082C3EB5002730B2002C30B3005F
:1022B0003230B4000130B6000A1295260A16342ACC
:1022C0002408B2002508B3000A129F250A167008D8
:1022D0002C3EB5003430B2002C30B3003F30B40097
:1022E0000130B6000A1295260A16342A2408B200D4
:1022F0002508B3000A129F250A1670082C3EB50067
:102300004130B2002C30B3004C30B4000130B60084
:102310000A1295260A16342A2408B2002508B300AA
:102320000A129F250A1670082C3EB5004E30B200E6
:102330002C30B3005930B4000130B6000A12952693
:102340000A16342A2408B2002508B3000A129F2571
:102350000A1670082C3EB5005B30B2002C30B3007A
:102360006630B4000130B6000A1295260A16342AE7
:102370002408B2002508B3000A129F250A16700827
:102380002C3EB5006830B2002C30B3007330B4007E
:102390000130B6000A1295260A16342A2408B20023
:1023A0002508B3000A129F250A1670082C3EB500B6
:1023B0007530B2002C30B3008030B4000130B6006C
:1023C0000A1295260A16342A00302706031DEA2928
:1023D000013026060319092900302706031DF229BA
:1023E0000230260603191E2900302706031DFA298C
:1023F000033026060319342900302706031D022A5C
:102400000430260603194A2900302706031D0A2A2C
:10241000053026060319602900302706031D122AFD
:10242000063026060319762900302706031D1A2ACE
:102430000730260603198C2900302706031D222A9F
:10244000083026060319A22900302706031D2A2A70
:10245000093026060319B82900302706031D322A41
:0A2460000A3026060319CE290800F1
:10246A0083120313EB01EC01ED01EE018316A001C7
:10247A00A101FE30A200FF30A3008312A901AA0124
:10248A00A701A801E830A5002330A6008101073082
:10249A0083168100A0308B000317880189018312FB
:1024AA008713881383160313870187118A150A1263
:1024BA0023278A110A168316A4018A150A12E52609
:1024CA008A110A168312EB01EC0180306C06F000C7
:1024DA0080307002031D732A18306B020318882A91
:1024EA006B08F0006C08F100F00DF10D7010700827
:1024FA002C3E8400803080007B30840A8000EB0A06
:10250A000319EC0A6A2AEB01EC018316A4018A1565
:10251A000A12E5268A110A16BC018030BD002C3049
:10252A00BE000130BF000A1293220A16A001A101BF
:10253A0080302106F00080307002031DA62A0A307E
:10254A0020020318E02A2008F0002108F100F00D0B
:10255A00F10D701070082C3E84000008A400840A53
:10256A000008A5002008013EA60000300318013E1D
:10257A002107A70000202208A4002308A50020089C
:10258A00F0002108F100F00DF10D701070082C3EDA
:10259A0084000008A600840A0008A7008A150A1207
:1025AA008B238A110A167008A2007108A300A00AD8
:1025BA000319A10A9D2AA401A5010930A600003029
:1025CA00A7000230A8000030A9008A150A12622664
:1025DA008A110A16FE30A200FF30A30083126B088C
:1025EA00ED006C08EE000A12CB270A167008831257
:1025FA00EA002608233C031D042B2508E83C03189F
:10260A00322B8B010230FB000430FC00BA30FD0093
:10261A00FD0B0D2BFC0B0D2BFB0B0D2B00002708C4
:10262A00F0002808F100F00DF10D701070082C3E32
:10263A00EF0003308316A4000A1206270A166F0851
:10264A008400700880007108840A8000A70A0319B0
:10265A00A80AA501A601A0308B006A08523A031DF8
:10266A00452B80306C06F00080307002031D3F2B32
:10267A0002306B020318442BEB0A0319EC0A5E2B97
:10268A006A084C3A031D592B8030F00080306C06E2
:10269A007002031D522B6B08003C0318582B0130A3
:1026AA00EB02031CEC035E2B6A08433A031D5E2B04
:1026BA00DA2C6E086C06031D642B6B086D06031D6D
:1026CA00672BF32A00306C06031D6D2B00306B0656
:1026DA00031DD72B8316A001A101A4018A150A1292
:1026EA00E5268A110A16BC018030BD002C30BE00D6
:1026FA000130BF000A1293220A16A001A1018030FC
:10270A002106F00080307002031D8D2B0A30200252
:10271A000318C72B2008F0002108F100F00DF10D75
:10272A00701070082C3E84000008A400840A000877
:10273A00A5002008013EA60000300318013E21072B
:10274A00A70000202208A4002308A5002008F00002
:10275A002108F100F00DF10D701070082C3E840074
:10276A000008A600840A0008A7008A150A128B230B
:10277A008A110A167008A2007108A300A00A031998
:10278A00A10A842BA401A5010930A6000030A700E4
:10279A000230A8000030A9008A150A1262268A119E
:1027AA000A16D42C003083126C06031DDE2B01306E
:1027BA006B06031D562C8316A4018A150A12E526F8
:1027CA008A110A16BC018030BD002C30BE000130CF
:1027DA00BF000A1293220A16A001A1018030210625
:1027EA00F00080307002031DFC2B0A30200203180F
:1027FA00442C0A302007F30021080318013EF40094
:10280A007308F0007408F100F00DF10D70107008F3
:10281A002C3E84000008A400840A0008A5002008B1
:10282A00013EA60000300318013E2107A700002040
:10283A002208A4002308A5000A302007F300210873
:10284A000318013EF4007308F0007408F100F00D5B
:10285A00F10D701070082C3E84000008A600840A4E
:10286A000008A7008A150A128B238A110A16700813
:10287A00A2007108A300A00A0319A10AF32B0A30C7
:10288A00A4000030A5001330A6000030A7000230D3
:10289A00A8000030A9008A150A1262268A110A16AF
:1028AA00D42C003083126C06031D5D2C02306B069B
:1028BA00031DD42C8316A4018A150A12E5268A114F
:1028CA000A16BC018030BD002C30BE000130BF00AA
:1028DA000A1293220A16A001A10180302106F000F3
:1028EA0080307002031D7B2C043020020318C32C95
:1028FA0014302007F30021080318013EF40073087E
:10290A00F0007408F100F00DF10D701070082C3E03
:10291A0084000008A400840A0008A5002008013EDB
:10292A00A60000300318013E2107A7000020220854
:10293A00A4002308A50014302007F3002108031877
:10294A00013EF4007308F0007408F100F00DF10D77
:10295A00701070082C3E84000008A600840A000843
:10296A00A7008A150A128B238A110A167008A20078
:10297A007108A300A00A0319A10A722C1430A4003A
:10298A000030A5001730A6000030A7000230A800CA
:10299A000030A9008A150A1262268A110A168316BD
:0C29AA00FE30A200FF30A300F32ADA2C5C
:04400E00F22F000786
:00000001FF
